:020000020000FC
:020000002AC014
:100054002BC03D984598389A399A3A9A3B9A0CEFB6
:100064000AB90FEF04B905E600937C000DE800938C
:100074007A00C0E0D1E00FE3099306E009930BE5B1
:1000840009930FE4099306E609930DE609930DE736
:10009400099307E009930FE709930FE609930DEC21
:1000A40000937A007894FFCF0F930FB70F930E94B9
:1000B40062000DEC00937A000F910FBF0F91189519
:1000C4000091790019E10903012D989420E023950A
:1000D4001AE03AE0129F102D3A951A951030B9F3B0
:1000E4001634B9F01017C1F72A95C32F0881C22F0F
:1000F40018814427000F111F441F000F111F441FB4
:100104000BB915B9110F441F110F441F48B9439A75
:08011400089521E010E0E8CF9E
:00000001FF
